{
  "contractName": "AccessContract",
  "abi": [
    {
      "constant": true,
      "inputs": [
        {
          "name": "",
          "type": "uint256"
        }
      ],
      "name": "unSuccessAccessMap",
      "outputs": [
        {
          "name": "_accessName",
          "type": "string"
        },
        {
          "name": "_accessTime",
          "type": "string"
        }
      ],
      "payable": false,
      "stateMutability": "view",
      "type": "function",
      "signature": "0x1d61c07b"
    },
    {
      "constant": true,
      "inputs": [
        {
          "name": "",
          "type": "uint256"
        }
      ],
      "name": "successAccessMap",
      "outputs": [
        {
          "name": "_accessName",
          "type": "string"
        },
        {
          "name": "_accessTime",
          "type": "string"
        }
      ],
      "payable": false,
      "stateMutability": "view",
      "type": "function",
      "signature": "0x2107b770"
    },
    {
      "constant": true,
      "inputs": [],
      "name": "unSuccessAccessCount",
      "outputs": [
        {
          "name": "",
          "type": "uint256"
        }
      ],
      "payable": false,
      "stateMutability": "view",
      "type": "function",
      "signature": "0x822bdfef"
    },
    {
      "constant": true,
      "inputs": [],
      "name": "successAccessCount",
      "outputs": [
        {
          "name": "",
          "type": "uint256"
        }
      ],
      "payable": false,
      "stateMutability": "view",
      "type": "function",
      "signature": "0x96ebc868"
    },
    {
      "constant": false,
      "inputs": [
        {
          "name": "_accessName",
          "type": "string"
        },
        {
          "name": "accessTime",
          "type": "string"
        }
      ],
      "name": "addSuccessPerson",
      "outputs": [],
      "payable": false,
      "stateMutability": "nonpayable",
      "type": "function",
      "signature": "0xbc2786ba"
    },
    {
      "constant": false,
      "inputs": [
        {
          "name": "_accessName",
          "type": "string"
        },
        {
          "name": "accessTime",
          "type": "string"
        }
      ],
      "name": "addUnSuccessPerson",
      "outputs": [],
      "payable": false,
      "stateMutability": "nonpayable",
      "type": "function",
      "signature": "0xc97bbb74"
    },
    {
      "constant": false,
      "inputs": [
        {
          "name": "successId",
          "type": "uint256"
        }
      ],
      "name": "getOneSuccessAccessName",
      "outputs": [
        {
          "name": "",
          "type": "string"
        }
      ],
      "payable": false,
      "stateMutability": "nonpayable",
      "type": "function",
      "signature": "0x1b24ca5f"
    },
    {
      "constant": false,
      "inputs": [
        {
          "name": "successId",
          "type": "uint256"
        }
      ],
      "name": "getOneSuccessAccessTime",
      "outputs": [
        {
          "name": "",
          "type": "string"
        }
      ],
      "payable": false,
      "stateMutability": "nonpayable",
      "type": "function",
      "signature": "0x27fc0289"
    },
    {
      "constant": false,
      "inputs": [
        {
          "name": "unSuccessId",
          "type": "uint256"
        }
      ],
      "name": "getOneUnSuccessAccessName",
      "outputs": [
        {
          "name": "",
          "type": "string"
        }
      ],
      "payable": false,
      "stateMutability": "nonpayable",
      "type": "function",
      "signature": "0xea640026"
    },
    {
      "constant": false,
      "inputs": [
        {
          "name": "unSuccessId",
          "type": "uint256"
        }
      ],
      "name": "getOneUnSuccessAccessTime",
      "outputs": [
        {
          "name": "",
          "type": "string"
        }
      ],
      "payable": false,
      "stateMutability": "nonpayable",
      "type": "function",
      "signature": "0xb4831862"
    },
    {
      "constant": false,
      "inputs": [],
      "name": "getSuccessAccessNumber",
      "outputs": [
        {
          "name": "",
          "type": "uint256"
        }
      ],
      "payable": false,
      "stateMutability": "nonpayable",
      "type": "function",
      "signature": "0x0ae6f1fe"
    },
    {
      "constant": false,
      "inputs": [],
      "name": "getUnSuccessAccessNumber",
      "outputs": [
        {
          "name": "",
          "type": "uint256"
        }
      ],
      "payable": false,
      "stateMutability": "nonpayable",
      "type": "function",
      "signature": "0xc94ab8f4"
    }
  ],
  "bytecode": "0x608060405260008055600060015534801561001957600080fd5b50610b21806100296000396000f3fe6080604052600436106100b95763ffffffff7c01000000000000000000000000000000000000000000000000000000006000350416630ae6f1fe81146100be5780631b24ca5f146100e55780631d61c07b146101845780632107b7701461028c57806327fc0289146102b6578063822bdfef146102e057806396ebc868146102f5578063b48318621461030a578063bc2786ba14610334578063c94ab8f414610470578063c97bbb7414610485578063ea640026146105bf575b600080fd5b3480156100ca57600080fd5b506100d36105e9565b60408051918252519081900360200190f35b3480156100f157600080fd5b5061010f6004803603602081101561010857600080fd5b50356105f0565b6040805160208082528351818301528351919283929083019185019080838360005b83811015610149578181015183820152602001610131565b50505050905090810190601f1680156101765780820380516001836020036101000a031916815260200191505b509250505060405180910390f35b34801561019057600080fd5b506101ae600480360360208110156101a757600080fd5b503561068f565b604051808060200180602001838103835285818151815260200191508051906020019080838360005b838110156101ef5781810151838201526020016101d7565b50505050905090810190601f16801561021c5780820380516001836020036101000a031916815260200191505b50838103825284518152845160209182019186019080838360005b8381101561024f578181015183820152602001610237565b50505050905090810190601f16801561027c5780820380516001836020036101000a031916815260200191505b5094505050505060405180910390f35b34801561029857600080fd5b506101ae600480360360208110156102af57600080fd5b50356107ce565b3480156102c257600080fd5b5061010f600480360360208110156102d957600080fd5b5035610834565b3480156102ec57600080fd5b506100d361089f565b34801561030157600080fd5b506100d36108a5565b34801561031657600080fd5b5061010f6004803603602081101561032d57600080fd5b50356108ab565b34801561034057600080fd5b5061046e6004803603604081101561035757600080fd5b81019060208101813564010000000081111561037257600080fd5b82018360208201111561038457600080fd5b803590602001918460018302840111640100000000831117156103a657600080fd5b91908080601f01602080910402602001604051908101604052809392919081815260200183838082843760009201919091525092959493602081019350359150506401000000008111156103f957600080fd5b82018360208201111561040b57600080fd5b8035906020019184600183028401116401000000008311171561042d57600080fd5b91908080601f01602080910402602001604051908101604052809392919081815260200183838082843760009201919091525092955061092c945050505050565b005b34801561047c57600080fd5b506100d361098c565b34801561049157600080fd5b5061046e600480360360408110156104a857600080fd5b8101906020810181356401000000008111156104c357600080fd5b8201836020820111156104d557600080fd5b803590602001918460018302840111640100000000831117156104f757600080fd5b91908080601f016020809104026020016040519081016040528093929190818152602001838380828437600092019190915250929594936020810193503591505064010000000081111561054a57600080fd5b82018360208201111561055c57600080fd5b8035906020019184600183028401116401000000008311171561057e57600080fd5b91908080601f016020809104026020016040519081016040528093929190818152602001838380828437600092019190915250929550610992945050505050565b3480156105cb57600080fd5b5061010f600480360360208110156105e257600080fd5b50356109f3565b6000545b90565b600081815260026020818152604092839020805484516001821615610100026000190190911693909304601f810183900483028401830190945283835260609390918301828280156106835780601f1061065857610100808354040283529160200191610683565b820191906000526020600020905b81548152906001019060200180831161066657829003601f168201915b50505050509050919050565b60036020908152600091825260409182902080548351601f600260001961010060018616150201909316929092049182018490048402810184019094528084529092918391908301828280156107265780601f106106fb57610100808354040283529160200191610726565b820191906000526020600020905b81548152906001019060200180831161070957829003601f168201915b505050505090806001018054600181600116156101000203166002900480601f0160208091040260200160405190810160405280929190818152602001828054600181600116156101000203166002900480156107c45780601f10610799576101008083540402835291602001916107c4565b820191906000526020600020905b8154815290600101906020018083116107a757829003601f168201915b5050505050905082565b600260208181526000928352604092839020805484516001821615610100026000190190911693909304601f81018390048302840183019094528383529283918301828280156107265780601f106106fb57610100808354040283529160200191610726565b6000818152600260208181526040928390206001908101805485519281161561010002600019011693909304601f81018390048302820183019094528381526060939092918301828280156106835780601f1061065857610100808354040283529160200191610683565b60015481565b60005481565b6060600360008381526020019081526020016000206001018054600181600116156101000203166002900480601f0160208091040260200160405190810160405280929190818152602001828054600181600116156101000203166002900480156106835780601f1061065857610100808354040283529160200191610683565b6040805180820182528381526020808201849052600080548152600282529290922081518051929391926109639284920190610a5d565b50602082810151805161097c9260018501920190610a5d565b5050600080546001019055505050565b60015490565b60408051808201825283815260208082018490526001546000908152600382529290922081518051929391926109cb9284920190610a5d565b5060208281015180516109e49260018501920190610a5d565b50506001805481019055505050565b60008181526003602090815260409182902080548351601f60026000196101006001861615020190931692909204918201849004840281018401909452808452606093928301828280156106835780601f1061065857610100808354040283529160200191610683565b828054600181600116156101000203166002900490600052602060002090601f016020900481019282601f10610a9e57805160ff1916838001178555610acb565b82800160010185558215610acb579182015b82811115610acb578251825591602001919060010190610ab0565b50610ad7929150610adb565b5090565b6105ed91905b80821115610ad75760008155600101610ae156fea165627a7a723058206fc367b74e33ab5b51cdcd468f8af85be746bef04d41a7f6c7708a93c7d138ce0029",
  "source": "pragma solidity >=0.4.22 <0.6.0;\r\n\r\ncontract AccessContract{\r\n    uint256 public successAccessCount = 0;\r\n    uint256 public unSuccessAccessCount = 0;\r\n    struct AccessModel{\r\n        string _accessName;\r\n        string _accessTime;\r\n    }\r\n    mapping(uint => AccessModel) public successAccessMap;\r\n    mapping(uint => AccessModel) public unSuccessAccessMap;\r\n    \r\n    function addSuccessPerson(string memory _accessName, string memory accessTime) public{\r\n        successAccessMap[successAccessCount] = AccessModel(_accessName, accessTime);\r\n        successAccessCount++;\r\n    }    \r\n    \r\n    function addUnSuccessPerson(string memory _accessName, string memory accessTime) public{\r\n        unSuccessAccessMap[unSuccessAccessCount] = AccessModel(_accessName, accessTime);\r\n        unSuccessAccessCount++;\r\n    }\r\n    \r\n    function getOneSuccessAccessName(uint256 successId) public returns (string memory){\r\n        return ( successAccessMap[successId]._accessName);\r\n    }\r\n    \r\n    function getOneSuccessAccessTime(uint256 successId) public returns (string memory){\r\n        return (successAccessMap[successId]._accessTime);\r\n    }\r\n    \r\n    function getOneUnSuccessAccessName(uint256 unSuccessId) public returns (string memory){\r\n       return (unSuccessAccessMap[unSuccessId]._accessName);\r\n    }\r\n    \r\n    function getOneUnSuccessAccessTime(uint256 unSuccessId) public returns (string memory){\r\n        return (unSuccessAccessMap[unSuccessId]._accessTime);\r\n    }\r\n    \r\n    function getSuccessAccessNumber() public returns(uint256){\r\n        return successAccessCount;\r\n    }\r\n    \r\n    function getUnSuccessAccessNumber() public returns(uint256){\r\n        return unSuccessAccessCount;\r\n    }\r\n    \r\n    \r\n}\r\n",
  "sourcePath": "C:/Users/samye/Desktop/_blockchain/secureSmartLock-blockChain/contracts/AccessContract.sol",
  "compiler": {
    "name": "solc",
    "version": "0.5.0+commit.1d4f565a.Emscripten.clang"
  },
  "schemaVersion": "3.0.1",
  "updatedAt": "2019-05-20T13:03:03.520Z",
  "devdoc": {
    "methods": {}
  },
  "userdoc": {
    "methods": {}
  }
}