{
  "contractName": "AccessContract",
  "abi": [
    {
      "constant": true,
      "inputs": [
        {
          "name": "",
          "type": "uint256"
        }
      ],
      "name": "unSuccessAccessMap",
      "outputs": [
        {
          "name": "_accessName",
          "type": "string"
        },
        {
          "name": "_accessTime",
          "type": "string"
        }
      ],
      "payable": false,
      "stateMutability": "view",
      "type": "function"
    },
    {
      "constant": true,
      "inputs": [
        {
          "name": "",
          "type": "uint256"
        }
      ],
      "name": "successAccessMap",
      "outputs": [
        {
          "name": "_accessName",
          "type": "string"
        },
        {
          "name": "_accessTime",
          "type": "string"
        }
      ],
      "payable": false,
      "stateMutability": "view",
      "type": "function"
    },
    {
      "constant": true,
      "inputs": [],
      "name": "unSuccessAccessCount",
      "outputs": [
        {
          "name": "",
          "type": "uint256"
        }
      ],
      "payable": false,
      "stateMutability": "view",
      "type": "function"
    },
    {
      "constant": true,
      "inputs": [],
      "name": "successAccessCount",
      "outputs": [
        {
          "name": "",
          "type": "uint256"
        }
      ],
      "payable": false,
      "stateMutability": "view",
      "type": "function"
    },
    {
      "constant": false,
      "inputs": [
        {
          "name": "_accessName",
          "type": "string"
        },
        {
          "name": "accessTime",
          "type": "string"
        }
      ],
      "name": "addSuccessPerson",
      "outputs": [],
      "payable": false,
      "stateMutability": "nonpayable",
      "type": "function"
    },
    {
      "constant": false,
      "inputs": [
        {
          "name": "_accessName",
          "type": "string"
        },
        {
          "name": "accessTime",
          "type": "string"
        }
      ],
      "name": "addUnSuccessPerson",
      "outputs": [],
      "payable": false,
      "stateMutability": "nonpayable",
      "type": "function"
    },
    {
      "constant": false,
      "inputs": [
        {
          "name": "successId",
          "type": "uint256"
        }
      ],
      "name": "getOneSuccessAccessName",
      "outputs": [
        {
          "name": "",
          "type": "string"
        }
      ],
      "payable": false,
      "stateMutability": "nonpayable",
      "type": "function"
    },
    {
      "constant": false,
      "inputs": [
        {
          "name": "successId",
          "type": "uint256"
        }
      ],
      "name": "getOneSuccessAccessTime",
      "outputs": [
        {
          "name": "",
          "type": "string"
        }
      ],
      "payable": false,
      "stateMutability": "nonpayable",
      "type": "function"
    },
    {
      "constant": false,
      "inputs": [
        {
          "name": "unSuccessId",
          "type": "uint256"
        }
      ],
      "name": "getOneUnSuccessAccessName",
      "outputs": [
        {
          "name": "",
          "type": "string"
        }
      ],
      "payable": false,
      "stateMutability": "nonpayable",
      "type": "function"
    },
    {
      "constant": false,
      "inputs": [
        {
          "name": "unSuccessId",
          "type": "uint256"
        }
      ],
      "name": "getOneUnSuccessAccessTime",
      "outputs": [
        {
          "name": "",
          "type": "string"
        }
      ],
      "payable": false,
      "stateMutability": "nonpayable",
      "type": "function"
    },
    {
      "constant": false,
      "inputs": [],
      "name": "getSuccessAccessNumber",
      "outputs": [
        {
          "name": "",
          "type": "uint256"
        }
      ],
      "payable": false,
      "stateMutability": "nonpayable",
      "type": "function"
    },
    {
      "constant": false,
      "inputs": [],
      "name": "getUnSuccessAccessNumber",
      "outputs": [
        {
          "name": "",
          "type": "uint256"
        }
      ],
      "payable": false,
      "stateMutability": "nonpayable",
      "type": "function"
    }
  ],
  "bytecode": "0x608060405260008055600060015534801561001957600080fd5b506110a9806100296000396000f3fe6080604052600436106100ba576000357c0100000000000000000000000000000000000000000000000000000000900463ffffffff1680630ae6f1fe146100bf5780631b24ca5f146100ea5780631d61c07b1461019e5780632107b770146102be57806327fc0289146103de578063822bdfef1461049257806396ebc868146104bd578063b4831862146104e8578063bc2786ba1461059c578063c94ab8f4146106fb578063c97bbb7414610726578063ea64002614610885575b600080fd5b3480156100cb57600080fd5b506100d4610939565b6040518082815260200191505060405180910390f35b3480156100f657600080fd5b506101236004803603602081101561010d57600080fd5b8101908080359060200190929190505050610942565b6040518080602001828103825283818151815260200191508051906020019080838360005b83811015610163578082015181840152602081019050610148565b50505050905090810190601f1680156101905780820380516001836020036101000a031916815260200191505b509250505060405180910390f35b3480156101aa57600080fd5b506101d7600480360360208110156101c157600080fd5b81019080803590602001909291905050506109fa565b604051808060200180602001838103835285818151815260200191508051906020019080838360005b8381101561021b578082015181840152602081019050610200565b50505050905090810190601f1680156102485780820380516001836020036101000a031916815260200191505b50838103825284818151815260200191508051906020019080838360005b83811015610281578082015181840152602081019050610266565b50505050905090810190601f1680156102ae5780820380516001836020036101000a031916815260200191505b5094505050505060405180910390f35b3480156102ca57600080fd5b506102f7600480360360208110156102e157600080fd5b8101908080359060200190929190505050610b4e565b604051808060200180602001838103835285818151815260200191508051906020019080838360005b8381101561033b578082015181840152602081019050610320565b50505050905090810190601f1680156103685780820380516001836020036101000a031916815260200191505b50838103825284818151815260200191508051906020019080838360005b838110156103a1578082015181840152602081019050610386565b50505050905090810190601f1680156103ce5780820380516001836020036101000a031916815260200191505b5094505050505060405180910390f35b3480156103ea57600080fd5b506104176004803603602081101561040157600080fd5b8101908080359060200190929190505050610ca2565b6040518080602001828103825283818151815260200191508051906020019080838360005b8381101561045757808201518184015260208101905061043c565b50505050905090810190601f1680156104845780820380516001836020036101000a031916815260200191505b509250505060405180910390f35b34801561049e57600080fd5b506104a7610d5a565b6040518082815260200191505060405180910390f35b3480156104c957600080fd5b506104d2610d60565b6040518082815260200191505060405180910390f35b3480156104f457600080fd5b506105216004803603602081101561050b57600080fd5b8101908080359060200190929190505050610d66565b6040518080602001828103825283818151815260200191508051906020019080838360005b83811015610561578082015181840152602081019050610546565b50505050905090810190601f16801561058e5780820380516001836020036101000a031916815260200191505b509250505060405180910390f35b3480156105a857600080fd5b506106f9600480360360408110156105bf57600080fd5b81019080803590602001906401000000008111156105dc57600080fd5b8201836020820111156105ee57600080fd5b8035906020019184600183028401116401000000008311171561061057600080fd5b91908080601f016020809104026020016040519081016040528093929190818152602001838380828437600081840152601f19601f8201169050808301925050505050505091929192908035906020019064010000000081111561067357600080fd5b82018360208201111561068557600080fd5b803590602001918460018302840111640100000000831117156106a757600080fd5b91908080601f016020809104026020016040519081016040528093929190818152602001838380828437600081840152601f19601f820116905080830192505050505050509192919290505050610e1e565b005b34801561070757600080fd5b50610710610e99565b6040518082815260200191505060405180910390f35b34801561073257600080fd5b506108836004803603604081101561074957600080fd5b810190808035906020019064010000000081111561076657600080fd5b82018360208201111561077857600080fd5b8035906020019184600183028401116401000000008311171561079a57600080fd5b91908080601f016020809104026020016040519081016040528093929190818152602001838380828437600081840152601f19601f820116905080830192505050505050509192919290803590602001906401000000008111156107fd57600080fd5b82018360208201111561080f57600080fd5b8035906020019184600183028401116401000000008311171561083157600080fd5b91908080601f016020809104026020016040519081016040528093929190818152602001838380828437600081840152601f19601f820116905080830192505050505050509192919290505050610ea3565b005b34801561089157600080fd5b506108be600480360360208110156108a857600080fd5b8101908080359060200190929190505050610f20565b6040518080602001828103825283818151815260200191508051906020019080838360005b838110156108fe5780820151818401526020810190506108e3565b50505050905090810190601f16801561092b5780820380516001836020036101000a031916815260200191505b509250505060405180910390f35b60008054905090565b6060600260008381526020019081526020016000206000018054600181600116156101000203166002900480601f0160208091040260200160405190810160405280929190818152602001828054600181600116156101000203166002900480156109ee5780601f106109c3576101008083540402835291602001916109ee565b820191906000526020600020905b8154815290600101906020018083116109d157829003601f168201915b50505050509050919050565b6003602052806000526040600020600091509050806000018054600181600116156101000203166002900480601f016020809104026020016040519081016040528092919081815260200182805460018160011615610100020316600290048015610aa65780601f10610a7b57610100808354040283529160200191610aa6565b820191906000526020600020905b815481529060010190602001808311610a8957829003601f168201915b505050505090806001018054600181600116156101000203166002900480601f016020809104026020016040519081016040528092919081815260200182805460018160011615610100020316600290048015610b445780601f10610b1957610100808354040283529160200191610b44565b820191906000526020600020905b815481529060010190602001808311610b2757829003601f168201915b5050505050905082565b6002602052806000526040600020600091509050806000018054600181600116156101000203166002900480601f016020809104026020016040519081016040528092919081815260200182805460018160011615610100020316600290048015610bfa5780601f10610bcf57610100808354040283529160200191610bfa565b820191906000526020600020905b815481529060010190602001808311610bdd57829003601f168201915b505050505090806001018054600181600116156101000203166002900480601f016020809104026020016040519081016040528092919081815260200182805460018160011615610100020316600290048015610c985780601f10610c6d57610100808354040283529160200191610c98565b820191906000526020600020905b815481529060010190602001808311610c7b57829003601f168201915b5050505050905082565b6060600260008381526020019081526020016000206001018054600181600116156101000203166002900480601f016020809104026020016040519081016040528092919081815260200182805460018160011615610100020316600290048015610d4e5780601f10610d2357610100808354040283529160200191610d4e565b820191906000526020600020905b815481529060010190602001808311610d3157829003601f168201915b50505050509050919050565b60015481565b60005481565b6060600360008381526020019081526020016000206001018054600181600116156101000203166002900480601f016020809104026020016040519081016040528092919081815260200182805460018160011615610100020316600290048015610e125780601f10610de757610100808354040283529160200191610e12565b820191906000526020600020905b815481529060010190602001808311610df557829003601f168201915b50505050509050919050565b60408051908101604052808381526020018281525060026000805481526020019081526020016000206000820151816000019080519060200190610e63929190610fd8565b506020820151816001019080519060200190610e80929190610fd8565b5090505060008081548092919060010191905055505050565b6000600154905090565b6040805190810160405280838152602001828152506003600060015481526020019081526020016000206000820151816000019080519060200190610ee9929190610fd8565b506020820151816001019080519060200190610f06929190610fd8565b509050506001600081548092919060010191905055505050565b6060600360008381526020019081526020016000206000018054600181600116156101000203166002900480601f016020809104026020016040519081016040528092919081815260200182805460018160011615610100020316600290048015610fcc5780601f10610fa157610100808354040283529160200191610fcc565b820191906000526020600020905b815481529060010190602001808311610faf57829003601f168201915b50505050509050919050565b828054600181600116156101000203166002900490600052602060002090601f016020900481019282601f1061101957805160ff1916838001178555611047565b82800160010185558215611047579182015b8281111561104657825182559160200191906001019061102b565b5b5090506110549190611058565b5090565b61107a91905b8082111561107657600081600090555060010161105e565b5090565b9056fea165627a7a72305820c06facafca775c7b39826cffa0954931f6af88936e65aafa44adfd869ccedc410029",
  "source": "pragma solidity >=0.4.22 <0.6.0;\r\n\r\ncontract AccessContract{\r\n    uint256 public successAccessCount = 0;\r\n    uint256 public unSuccessAccessCount = 0;\r\n    struct AccessModel{\r\n        string _accessName;\r\n        string _accessTime;\r\n    }\r\n    mapping(uint => AccessModel) public successAccessMap;\r\n    mapping(uint => AccessModel) public unSuccessAccessMap;\r\n    \r\n    function addSuccessPerson(string memory _accessName, string memory accessTime) public{\r\n        successAccessMap[successAccessCount] = AccessModel(_accessName, accessTime);\r\n        successAccessCount++;\r\n    }\r\n    \r\n    function addUnSuccessPerson(string memory _accessName, string memory accessTime) public{\r\n        unSuccessAccessMap[unSuccessAccessCount] = AccessModel(_accessName, accessTime);\r\n        unSuccessAccessCount++;\r\n    }\r\n    \r\n    function getOneSuccessAccessName(uint256 successId) public returns (string memory){\r\n        return ( successAccessMap[successId]._accessName);\r\n    }\r\n    \r\n    function getOneSuccessAccessTime(uint256 successId) public returns (string memory){\r\n        return (successAccessMap[successId]._accessTime);\r\n    }\r\n    \r\n    function getOneUnSuccessAccessName(uint256 unSuccessId) public returns (string memory){\r\n       return (unSuccessAccessMap[unSuccessId]._accessName);\r\n    }\r\n    \r\n    function getOneUnSuccessAccessTime(uint256 unSuccessId) public returns (string memory){\r\n        return (unSuccessAccessMap[unSuccessId]._accessTime);\r\n    }\r\n    \r\n    function getSuccessAccessNumber() public returns(uint256){\r\n        return successAccessCount;\r\n    }\r\n    \r\n    function getUnSuccessAccessNumber() public returns(uint256){\r\n        return unSuccessAccessCount;\r\n    }\r\n    \r\n    \r\n}\r\n",
  "sourcePath": "C:/Users/samye/Desktop/_Blockchain/deviceActivityLoggerContract/contracts/AccessContract.sol",
  "compiler": {
    "name": "solc",
    "version": "0.5.0+commit.1d4f565a.Emscripten.clang"
  },
  "schemaVersion": "3.0.1",
  "updatedAt": "2019-10-23T20:19:24.845Z",
  "devdoc": {
    "methods": {}
  },
  "userdoc": {
    "methods": {}
  }
}