{
  "contractName": "DeviceActivityLogger",
  "abi": [
    {
      "inputs": [],
      "payable": false,
      "stateMutability": "nonpayable",
      "type": "constructor",
      "signature": "constructor"
    },
    {
      "constant": false,
      "inputs": [
        {
          "name": "devId",
          "type": "uint256"
        },
        {
          "name": "log",
          "type": "string"
        }
      ],
      "name": "addLog",
      "outputs": [],
      "payable": false,
      "stateMutability": "nonpayable",
      "type": "function",
      "signature": "0x36d10002"
    },
    {
      "constant": true,
      "inputs": [
        {
          "name": "devId",
          "type": "uint256"
        }
      ],
      "name": "getLogs",
      "outputs": [
        {
          "name": "",
          "type": "string"
        }
      ],
      "payable": false,
      "stateMutability": "view",
      "type": "function",
      "signature": "0x1124c05a"
    }
  ],
  "bytecode": "0x608060405234801561001057600080fd5b5060008054600160a060020a03191633179055610522806100326000396000f3fe60806040526004361061004b5763ffffffff7c01000000000000000000000000000000000000000000000000000000006000350416631124c05a811461005057806336d10002146100ef575b600080fd5b34801561005c57600080fd5b5061007a6004803603602081101561007357600080fd5b50356101ab565b6040805160208082528351818301528351919283929083019185019080838360005b838110156100b457818101518382015260200161009c565b50505050905090810190601f1680156100e15780820380516001836020036101000a031916815260200191505b509250505060405180910390f35b3480156100fb57600080fd5b506101a96004803603604081101561011257600080fd5b8135919081019060408101602082013564010000000081111561013457600080fd5b82018360208201111561014657600080fd5b8035906020019184600183028401116401000000008311171561016857600080fd5b91908080601f0160208091040260200160405190810160405280939291908181526020018383808284376000920191909152509295506102d7945050505050565b005b60005460609073ffffffffffffffffffffffffffffffffffffffff16331461023457604080517f08c379a000000000000000000000000000000000000000000000000000000000815260206004820152600d60248201527f6163636573732064656e69656400000000000000000000000000000000000000604482015290519081900360640190fd5b60008281526001602081815260409283902080830180548551600295821615610100026000190190911694909404601f8101849004840285018401909552848452909390918301828280156102ca5780601f1061029f576101008083540402835291602001916102ca565b820191906000526020600020905b8154815290600101906020018083116102ad57829003601f168201915b5050505050915050919050565b60005473ffffffffffffffffffffffffffffffffffffffff16331461035d57604080517f08c379a000000000000000000000000000000000000000000000000000000000815260206004820152600d60248201527f6163636573732064656e69656400000000000000000000000000000000000000604482015290519081900360640190fd5b6000600160008481526020019081526020016000209050806001018260405160200180838054600181600116156101000203166002900480156103d75780601f106103b55761010080835404028352918201916103d7565b820191906000526020600020905b8154815290600101906020018083116103c3575b5050825160208401908083835b602083106104035780518252601f1990920191602091820191016103e4565b6001836020036101000a0380198251168184511680821785525050505050509050019250505060405160208183030381529060405281600101908051906020019061044f92919061045b565b50805460010190555050565b828054600181600116156101000203166002900490600052602060002090601f016020900481019282601f1061049c57805160ff19168380011785556104c9565b828001600101855582156104c9579182015b828111156104c95782518255916020019190600101906104ae565b506104d59291506104d9565b5090565b6104f391905b808211156104d557600081556001016104df565b9056fea165627a7a72305820419d641d521ed7d1a139802ee1198a6c28889a73ac366643a9c32dc2d503bb4d0029",
  "source": "pragma solidity ^0.5.0;\r\n\r\ncontract DeviceActivityLogger {\r\n    constructor() public{\r\n        owner = msg.sender;\r\n    }\r\n    address owner;\r\n    mapping(uint => Device) db;\r\n    struct Device {\r\n        uint logCount;\r\n        bytes logs;\r\n    }\r\n    function addLog(uint devId, string memory log) public{\r\n        require(msg.sender == owner, \"access denied\");\r\n        Device storage dev = db[devId];\r\n        dev.logs = abi.encodePacked(dev.logs,log);\r\n        dev.logCount++;\r\n    }\r\n    function getLogs(uint devId) public view returns(string memory) {\r\n        require(msg.sender == owner, \"access denied\");\r\n        Device storage dev = db[devId];\r\n        return string(dev.logs);\r\n    }\r\n}",
  "sourcePath": "C:/Users/samye/Desktop/_blockchain/secureSmartLock-blockChain/contracts/DeviceActivityLogger.sol",
  "compiler": {
    "name": "solc",
    "version": "0.5.0+commit.1d4f565a.Emscripten.clang"
  },
  "schemaVersion": "3.0.1",
  "updatedAt": "2019-06-23T19:31:52.584Z",
  "devdoc": {
    "methods": {}
  },
  "userdoc": {
    "methods": {}
  }
}