{
  "contractName": "DeviceActivityLogger",
  "abi": [
    {
      "inputs": [],
      "payable": false,
      "stateMutability": "nonpayable",
      "type": "constructor",
      "signature": "constructor"
    },
    {
      "constant": false,
      "inputs": [
        {
          "name": "devId",
          "type": "uint256"
        },
        {
          "name": "log",
          "type": "string"
        }
      ],
      "name": "addLog",
      "outputs": [],
      "payable": false,
      "stateMutability": "nonpayable",
      "type": "function",
      "signature": "0x36d10002"
    },
    {
      "constant": true,
      "inputs": [
        {
          "name": "devId",
          "type": "uint256"
        }
      ],
      "name": "getLogs",
      "outputs": [
        {
          "name": "",
          "type": "string"
        }
      ],
      "payable": false,
      "stateMutability": "view",
      "type": "function",
      "signature": "0x1124c05a"
    }
  ],
  "bytecode": "0x608060405234801561001057600080fd5b50336000806101000a81548173ffffffffffffffffffffffffffffffffffffffff021916908373ffffffffffffffffffffffffffffffffffffffff160217905550610601806100606000396000f3fe60806040526004361061004c576000357c0100000000000000000000000000000000000000000000000000000000900463ffffffff1680631124c05a1461005157806336d1000214610105575b600080fd5b34801561005d57600080fd5b5061008a6004803603602081101561007457600080fd5b81019080803590602001909291905050506101d7565b6040518080602001828103825283818151815260200191508051906020019080838360005b838110156100ca5780820151818401526020810190506100af565b50505050905090810190601f1680156100f75780820380516001836020036101000a031916815260200191505b509250505060405180910390f35b34801561011157600080fd5b506101d56004803603604081101561012857600080fd5b81019080803590602001909291908035906020019064010000000081111561014f57600080fd5b82018360208201111561016157600080fd5b8035906020019184600183028401116401000000008311171561018357600080fd5b91908080601f016020809104026020016040519081016040528093929190818152602001838380828437600081840152601f19601f820116905080830192505050505050509192919290505050610359565b005b60606000809054906101000a900473ffffffffffffffffffffffffffffffffffffffff1673ffffffffffffffffffffffffffffffffffffffff163373ffffffffffffffffffffffffffffffffffffffff1614151561029d576040517f08c379a000000000000000000000000000000000000000000000000000000000815260040180806020018281038252600d8152602001807f6163636573732064656e6965640000000000000000000000000000000000000081525060200191505060405180910390fd5b6000600160008481526020019081526020016000209050806001018054600181600116156101000203166002900480601f01602080910402602001604051908101604052809291908181526020018280546001816001161561010002031660029004801561034c5780601f106103215761010080835404028352916020019161034c565b820191906000526020600020905b81548152906001019060200180831161032f57829003601f168201915b5050505050915050919050565b6000809054906101000a900473ffffffffffffffffffffffffffffffffffffffff1673ffffffffffffffffffffffffffffffffffffffff163373ffffffffffffffffffffffffffffffffffffffff1614151561041d576040517f08c379a000000000000000000000000000000000000000000000000000000000815260040180806020018281038252600d8152602001807f6163636573732064656e6965640000000000000000000000000000000000000081525060200191505060405180910390fd5b6000600160008481526020019081526020016000209050806001018260405160200180838054600181600116156101000203166002900480156104975780601f10610475576101008083540402835291820191610497565b820191906000526020600020905b815481529060010190602001808311610483575b505082805190602001908083835b6020831015156104ca57805182526020820191506020810190506020830392506104a5565b6001836020036101000a03801982511681845116808217855250505050505090500192505050604051602081830303815290604052816001019080519060200190610516929190610530565b508060000160008154809291906001019190505550505050565b828054600181600116156101000203166002900490600052602060002090601f016020900481019282601f1061057157805160ff191683800117855561059f565b8280016001018555821561059f579182015b8281111561059e578251825591602001919060010190610583565b5b5090506105ac91906105b0565b5090565b6105d291905b808211156105ce5760008160009055506001016105b6565b5090565b9056fea165627a7a7230582023ccb040f5f3e8bd92275964ca7f0d4ed71f7d94c6884a6274bd886c2839bb610029",
  "source": "pragma solidity ^0.5.0;\r\n\r\ncontract DeviceActivityLogger {\r\n    constructor() public{\r\n        owner = msg.sender;\r\n    }\r\n    address owner;\r\n    mapping(uint => Device) db;\r\n    struct Device {\r\n        uint logCount;\r\n        bytes logs;\r\n    }\r\n    function addLog(uint devId, string memory log) public{\r\n        require(msg.sender == owner, \"access denied\");\r\n        Device storage dev = db[devId];\r\n        dev.logs = abi.encodePacked(dev.logs,log);\r\n        dev.logCount++;\r\n    }\r\n    function getLogs(uint devId) public view returns(string memory) {\r\n        require(msg.sender == owner, \"access denied\");\r\n        Device storage dev = db[devId];\r\n        return string(dev.logs);\r\n    }\r\n}",
  "sourcePath": "C:/Users/samye/Desktop/_Blockchain/deviceActivityLoggerContract/contracts/DeviceActivityLogger.sol",
  "compiler": {
    "name": "solc",
    "version": "0.5.0+commit.1d4f565a.Emscripten.clang"
  },
  "schemaVersion": "3.0.1",
  "updatedAt": "2019-10-23T20:55:44.330Z",
  "devdoc": {
    "methods": {}
  },
  "userdoc": {
    "methods": {}
  }
}